{
  "contractName": "AcademicCredential",
  "abi": [
    {
      "inputs": [],
      "stateMutability": "nonpayable",
      "type": "constructor"
    },
    {
      "inputs": [],
      "name": "admin",
      "outputs": [
        {
          "internalType": "address",
          "name": "",
          "type": "address"
        }
      ],
      "stateMutability": "view",
      "type": "function",
      "constant": true
    },
    {
      "inputs": [
        {
          "internalType": "address",
          "name": "",
          "type": "address"
        }
      ],
      "name": "students",
      "outputs": [
        {
          "internalType": "address",
          "name": "wallet",
          "type": "address"
        },
        {
          "internalType": "string",
          "name": "ipfsHash",
          "type": "string"
        },
        {
          "internalType": "string",
          "name": "docHash",
          "type": "string"
        },
        {
          "internalType": "string",
          "name": "rollNo",
          "type": "string"
        },
        {
          "internalType": "string",
          "name": "contact",
          "type": "string"
        }
      ],
      "stateMutability": "view",
      "type": "function",
      "constant": true
    },
    {
      "inputs": [
        {
          "internalType": "address",
          "name": "wallet",
          "type": "address"
        },
        {
          "internalType": "string",
          "name": "ipfsHash",
          "type": "string"
        },
        {
          "internalType": "string",
          "name": "docHash",
          "type": "string"
        },
        {
          "internalType": "string",
          "name": "rollNo",
          "type": "string"
        },
        {
          "internalType": "string",
          "name": "contact",
          "type": "string"
        }
      ],
      "name": "addStudent",
      "outputs": [],
      "stateMutability": "nonpayable",
      "type": "function"
    },
    {
      "inputs": [
        {
          "internalType": "string",
          "name": "newIpfsHash",
          "type": "string"
        },
        {
          "internalType": "string",
          "name": "newDocHash",
          "type": "string"
        },
        {
          "internalType": "string",
          "name": "newRollNo",
          "type": "string"
        },
        {
          "internalType": "string",
          "name": "newContact",
          "type": "string"
        }
      ],
      "name": "updateStudentData",
      "outputs": [],
      "stateMutability": "nonpayable",
      "type": "function"
    },
    {
      "inputs": [
        {
          "internalType": "string",
          "name": "rollNo",
          "type": "string"
        }
      ],
      "name": "getStudentByRollNo",
      "outputs": [
        {
          "components": [
            {
              "internalType": "address",
              "name": "wallet",
              "type": "address"
            },
            {
              "internalType": "string",
              "name": "ipfsHash",
              "type": "string"
            },
            {
              "internalType": "string",
              "name": "docHash",
              "type": "string"
            },
            {
              "internalType": "string",
              "name": "rollNo",
              "type": "string"
            },
            {
              "internalType": "string",
              "name": "contact",
              "type": "string"
            }
          ],
          "internalType": "struct AcademicCredential.Student",
          "name": "",
          "type": "tuple"
        }
      ],
      "stateMutability": "view",
      "type": "function",
      "constant": true
    },
    {
      "inputs": [
        {
          "internalType": "address",
          "name": "wallet",
          "type": "address"
        }
      ],
      "name": "getStudent",
      "outputs": [
        {
          "components": [
            {
              "internalType": "address",
              "name": "wallet",
              "type": "address"
            },
            {
              "internalType": "string",
              "name": "ipfsHash",
              "type": "string"
            },
            {
              "internalType": "string",
              "name": "docHash",
              "type": "string"
            },
            {
              "internalType": "string",
              "name": "rollNo",
              "type": "string"
            },
            {
              "internalType": "string",
              "name": "contact",
              "type": "string"
            }
          ],
          "internalType": "struct AcademicCredential.Student",
          "name": "",
          "type": "tuple"
        }
      ],
      "stateMutability": "view",
      "type": "function",
      "constant": true
    },
    {
      "inputs": [
        {
          "internalType": "address",
          "name": "employer",
          "type": "address"
        }
      ],
      "name": "authorize",
      "outputs": [],
      "stateMutability": "nonpayable",
      "type": "function"
    },
    {
      "inputs": [
        {
          "internalType": "address",
          "name": "employer",
          "type": "address"
        }
      ],
      "name": "revoke",
      "outputs": [],
      "stateMutability": "nonpayable",
      "type": "function"
    },
    {
      "inputs": [
        {
          "internalType": "address",
          "name": "student",
          "type": "address"
        }
      ],
      "name": "getAuthorizedEmployers",
      "outputs": [
        {
          "internalType": "address[]",
          "name": "",
          "type": "address[]"
        }
      ],
      "stateMutability": "view",
      "type": "function",
      "constant": true
    },
    {
      "inputs": [
        {
          "internalType": "string",
          "name": "rollNo",
          "type": "string"
        }
      ],
      "name": "getStudentDataByRollNo",
      "outputs": [
        {
          "components": [
            {
              "internalType": "address",
              "name": "wallet",
              "type": "address"
            },
            {
              "internalType": "string",
              "name": "ipfsHash",
              "type": "string"
            },
            {
              "internalType": "string",
              "name": "docHash",
              "type": "string"
            },
            {
              "internalType": "string",
              "name": "rollNo",
              "type": "string"
            },
            {
              "internalType": "string",
              "name": "contact",
              "type": "string"
            }
          ],
          "internalType": "struct AcademicCredential.Student",
          "name": "",
          "type": "tuple"
        }
      ],
      "stateMutability": "view",
      "type": "function",
      "constant": true
    },
    {
      "inputs": [
        {
          "internalType": "address",
          "name": "wallet",
          "type": "address"
        }
      ],
      "name": "isAdmin",
      "outputs": [
        {
          "internalType": "bool",
          "name": "",
          "type": "bool"
        }
      ],
      "stateMutability": "view",
      "type": "function",
      "constant": true
    },
    {
      "inputs": [
        {
          "internalType": "address",
          "name": "wallet",
          "type": "address"
        }
      ],
      "name": "isStudent",
      "outputs": [
        {
          "internalType": "bool",
          "name": "",
          "type": "bool"
        }
      ],
      "stateMutability": "view",
      "type": "function",
      "constant": true
    },
    {
      "inputs": [],
      "name": "getAllStudents",
      "outputs": [
        {
          "internalType": "string[]",
          "name": "",
          "type": "string[]"
        },
        {
          "internalType": "string[]",
          "name": "",
          "type": "string[]"
        }
      ],
      "stateMutability": "view",
      "type": "function",
      "constant": true
    }
  ],
  "bytecode": "0x608060405234801561001057600080fd5b5033600560006101000a81548173ffffffffffffffffffffffffffffffffffffffff021916908373ffffffffffffffffffffffffffffffffffffffff160217905550613596806100616000396000f3fe608060405234801561001057600080fd5b50600436106100cf5760003560e01c8063a1c0220b1161008c578063e314221711610066578063e314221714610260578063e9e309271461027c578063f851a4401461029b578063fea068a6146102b9576100cf565b8063a1c0220b146101e0578063a6c807a914610210578063b6a5d7de14610244576100cf565b8063108c6a90146100d457806324d7806c1461010457806331bb605f146101345780636b7b44d71461016457806374a8f1031461019457806382f7d392146101b0575b600080fd5b6100ee60048036038101906100e991906125b6565b6102d5565b6040516100fb919061274a565b60405180910390f35b61011e60048036038101906101199190612798565b61079f565b60405161012b91906127e0565b60405180910390f35b61014e60048036038101906101499190612798565b6107f9565b60405161015b91906128aa565b60405180910390f35b61017e60048036038101906101799190612798565b61098c565b60405161018b919061274a565b60405180910390f35b6101ae60048036038101906101a99190612798565b610d4a565b005b6101ca60048036038101906101c59190612798565b610ff5565b6040516101d791906127e0565b60405180910390f35b6101fa60048036038101906101f591906125b6565b61104e565b604051610207919061274a565b60405180910390f35b61022a60048036038101906102259190612798565b611487565b60405161023b959493929190612925565b60405180910390f35b61025e60048036038101906102599190612798565b6116fd565b005b61027a60048036038101906102759190612994565b611947565b005b610284611cf8565b604051610292929190612b41565b60405180910390f35b6102a3611fac565b6040516102b09190612b78565b60405180910390f35b6102d360048036038101906102ce9190612b93565b611fd2565b005b6102dd612417565b60006001836040516102ef9190612ca6565b908152602001604051809103902060009054906101000a900473ffffffffffffffffffffffffffffffffffffffff169050600073ffffffffffffffffffffffffffffffffffffffff168173ffffffffffffffffffffffffffffffffffffffff160361038f576040517f08c379a000000000000000000000000000000000000000000000000000000000815260040161038690612d09565b60405180910390fd5b600360008273ffffffffffffffffffffffffffffffffffffffff1673ffffffffffffffffffffffffffffffffffffffff16815260200190815260200160002060003373ffffffffffffffffffffffffffffffffffffffff1673ffffffffffffffffffffffffffffffffffffffff16815260200190815260200160002060009054906101000a900460ff16806104715750600560009054906101000a900473ffffffffffffffffffffffffffffffffffffffff1673ffffffffffffffffffffffffffffffffffffffff163373ffffffffffffffffffffffffffffffffffffffff16145b6104b0576040517f08c379a00000000000000000000000000000000000000000000000000000000081526004016104a790612d75565b60405180910390fd5b6000808273ffffffffffffffffffffffffffffffffffffffff1673ffffffffffffffffffffffffffffffffffffffff1681526020019081526020016000206040518060a00160405290816000820160009054906101000a900473ffffffffffffffffffffffffffffffffffffffff1673ffffffffffffffffffffffffffffffffffffffff1673ffffffffffffffffffffffffffffffffffffffff16815260200160018201805461055f90612dc4565b80601f016020809104026020016040519081016040528092919081815260200182805461058b90612dc4565b80156105d85780601f106105ad576101008083540402835291602001916105d8565b820191906000526020600020905b8154815290600101906020018083116105bb57829003601f168201915b505050505081526020016002820180546105f190612dc4565b80601f016020809104026020016040519081016040528092919081815260200182805461061d90612dc4565b801561066a5780601f1061063f5761010080835404028352916020019161066a565b820191906000526020600020905b81548152906001019060200180831161064d57829003601f168201915b5050505050815260200160038201805461068390612dc4565b80601f01602080910402602001604051908101604052809291908181526020018280546106af90612dc4565b80156106fc5780601f106106d1576101008083540402835291602001916106fc565b820191906000526020600020905b8154815290600101906020018083116106df57829003601f168201915b5050505050815260200160048201805461071590612dc4565b80601f016020809104026020016040519081016040528092919081815260200182805461074190612dc4565b801561078e5780601f106107635761010080835404028352916020019161078e565b820191906000526020600020905b81548152906001019060200180831161077157829003601f168201915b505050505081525050915050919050565b6000600560009054906101000a900473ffffffffffffffffffffffffffffffffffffffff1673ffffffffffffffffffffffffffffffffffffffff168273ffffffffffffffffffffffffffffffffffffffff16149050919050565b60608173ffffffffffffffffffffffffffffffffffffffff163373ffffffffffffffffffffffffffffffffffffffff1614806108825750600560009054906101000a900473ffffffffffffffffffffffffffffffffffffffff1673ffffffffffffffffffffffffffffffffffffffff163373ffffffffffffffffffffffffffffffffffffffff16145b6108c1576040517f08c379a00000000000000000000000000000000000000000000000000000000081526004016108b890612d75565b60405180910390fd5b600260008373ffffffffffffffffffffffffffffffffffffffff1673ffffffffffffffffffffffffffffffffffffffff16815260200190815260200160002080548060200260200160405190810160405280929190818152602001828054801561098057602002820191906000526020600020905b8160009054906101000a900473ffffffffffffffffffffffffffffffffffffffff1673ffffffffffffffffffffffffffffffffffffffff1681526020019060010190808311610936575b50505050509050919050565b610994612417565b81600560009054906101000a900473ffffffffffffffffffffffffffffffffffffffff1673ffffffffffffffffffffffffffffffffffffffff163373ffffffffffffffffffffffffffffffffffffffff161480610a1c57508073ffffffffffffffffffffffffffffffffffffffff163373ffffffffffffffffffffffffffffffffffffffff16145b610a5b576040517f08c379a0000000000000000000000000000000000000000000000000000000008152600401610a5290612e67565b60405180910390fd5b6000808473ffffffffffffffffffffffffffffffffffffffff1673ffffffffffffffffffffffffffffffffffffffff1681526020019081526020016000206040518060a00160405290816000820160009054906101000a900473ffffffffffffffffffffffffffffffffffffffff1673ffffffffffffffffffffffffffffffffffffffff1673ffffffffffffffffffffffffffffffffffffffff168152602001600182018054610b0a90612dc4565b80601f0160208091040260200160405190810160405280929190818152602001828054610b3690612dc4565b8015610b835780601f10610b5857610100808354040283529160200191610b83565b820191906000526020600020905b815481529060010190602001808311610b6657829003601f168201915b50505050508152602001600282018054610b9c90612dc4565b80601f0160208091040260200160405190810160405280929190818152602001828054610bc890612dc4565b8015610c155780601f10610bea57610100808354040283529160200191610c15565b820191906000526020600020905b815481529060010190602001808311610bf857829003601f168201915b50505050508152602001600382018054610c2e90612dc4565b80601f0160208091040260200160405190810160405280929190818152602001828054610c5a90612dc4565b8015610ca75780601f10610c7c57610100808354040283529160200191610ca7565b820191906000526020600020905b815481529060010190602001808311610c8a57829003601f168201915b50505050508152602001600482018054610cc090612dc4565b80601f0160208091040260200160405190810160405280929190818152602001828054610cec90612dc4565b8015610d395780601f10610d0e57610100808354040283529160200191610d39565b820191906000526020600020905b815481529060010190602001808311610d1c57829003601f168201915b505050505081525050915050919050565b610d5333610ff5565b610d92576040517f08c379a0000000000000000000000000000000000000000000000000000000008152600401610d8990612ed3565b60405180910390fd5b6000600360003373ffffffffffffffffffffffffffffffffffffffff1673ffffffffffffffffffffffffffffffffffffffff16815260200190815260200160002060008373ffffffffffffffffffffffffffffffffffffffff1673ffffffffffffffffffffffffffffffffffffffff16815260200190815260200160002060006101000a81548160ff0219169083151502179055506000600260003373ffffffffffffffffffffffffffffffffffffffff1673ffffffffffffffffffffffffffffffffffffffff168152602001908152602001600020905060005b8180549050811015610ff0578273ffffffffffffffffffffffffffffffffffffffff16828281548110610ea357610ea2612ef3565b5b9060005260206000200160009054906101000a900473ffffffffffffffffffffffffffffffffffffffff1673ffffffffffffffffffffffffffffffffffffffff1603610fdd578160018380549050610efb9190612f5b565b81548110610f0c57610f0b612ef3565b5b9060005260206000200160009054906101000a900473ffffffffffffffffffffffffffffffffffffffff16828281548110610f4a57610f49612ef3565b5b9060005260206000200160006101000a81548173ffffffffffffffffffffffffffffffffffffffff021916908373ffffffffffffffffffffffffffffffffffffffff16021790555081805480610fa357610fa2612f8f565b5b6001900381819060005260206000200160006101000a81549073ffffffffffffffffffffffffffffffffffffffff02191690559055610ff0565b8080610fe890612fbe565b915050610e6d565b505050565b6000806000808473ffffffffffffffffffffffffffffffffffffffff1673ffffffffffffffffffffffffffffffffffffffff168152602001908152602001600020600101805461104490612dc4565b9050119050919050565b611056612417565b600560009054906101000a900473ffffffffffffffffffffffffffffffffffffffff1673ffffffffffffffffffffffffffffffffffffffff163373ffffffffffffffffffffffffffffffffffffffff16146110e6576040517f08c379a00000000000000000000000000000000000000000000000000000000081526004016110dd90613078565b60405180910390fd5b60006001836040516110f89190612ca6565b908152602001604051809103902060009054906101000a900473ffffffffffffffffffffffffffffffffffffffff169050600073ffffffffffffffffffffffffffffffffffffffff168173ffffffffffffffffffffffffffffffffffffffff1603611198576040517f08c379a000000000000000000000000000000000000000000000000000000000815260040161118f90612d09565b60405180910390fd5b6000808273ffffffffffffffffffffffffffffffffffffffff1673ffffffffffffffffffffffffffffffffffffffff1681526020019081526020016000206040518060a00160405290816000820160009054906101000a900473ffffffffffffffffffffffffffffffffffffffff1673ffffffffffffffffffffffffffffffffffffffff1673ffffffffffffffffffffffffffffffffffffffff16815260200160018201805461124790612dc4565b80601f016020809104026020016040519081016040528092919081815260200182805461127390612dc4565b80156112c05780601f10611295576101008083540402835291602001916112c0565b820191906000526020600020905b8154815290600101906020018083116112a357829003601f168201915b505050505081526020016002820180546112d990612dc4565b80601f016020809104026020016040519081016040528092919081815260200182805461130590612dc4565b80156113525780601f1061132757610100808354040283529160200191611352565b820191906000526020600020905b81548152906001019060200180831161133557829003601f168201915b5050505050815260200160038201805461136b90612dc4565b80601f016020809104026020016040519081016040528092919081815260200182805461139790612dc4565b80156113e45780601f106113b9576101008083540402835291602001916113e4565b820191906000526020600020905b8154815290600101906020018083116113c757829003601f168201915b505050505081526020016004820180546113fd90612dc4565b80601f016020809104026020016040519081016040528092919081815260200182805461142990612dc4565b80156114765780601f1061144b57610100808354040283529160200191611476565b820191906000526020600020905b81548152906001019060200180831161145957829003601f168201915b505050505081525050915050919050565b60006020528060005260406000206000915090508060000160009054906101000a900473ffffffffffffffffffffffffffffffffffffffff16908060010180546114d090612dc4565b80601f01602080910402602001604051908101604052809291908181526020018280546114fc90612dc4565b80156115495780601f1061151e57610100808354040283529160200191611549565b820191906000526020600020905b81548152906001019060200180831161152c57829003601f168201915b50505050509080600201805461155e90612dc4565b80601f016020809104026020016040519081016040528092919081815260200182805461158a90612dc4565b80156115d75780601f106115ac576101008083540402835291602001916115d7565b820191906000526020600020905b8154815290600101906020018083116115ba57829003601f168201915b5050505050908060030180546115ec90612dc4565b80601f016020809104026020016040519081016040528092919081815260200182805461161890612dc4565b80156116655780601f1061163a57610100808354040283529160200191611665565b820191906000526020600020905b81548152906001019060200180831161164857829003601f168201915b50505050509080600401805461167a90612dc4565b80601f01602080910402602001604051908101604052809291908181526020018280546116a690612dc4565b80156116f35780601f106116c8576101008083540402835291602001916116f3565b820191906000526020600020905b8154815290600101906020018083116116d657829003601f168201915b5050505050905085565b61170633610ff5565b611745576040517f08c379a000000000000000000000000000000000000000000000000000000000815260040161173c90612ed3565b60405180910390fd5b600360003373ffffffffffffffffffffffffffffffffffffffff1673ffffffffffffffffffffffffffffffffffffffff16815260200190815260200160002060008273ffffffffffffffffffffffffffffffffffffffff1673ffffffffffffffffffffffffffffffffffffffff16815260200190815260200160002060009054906101000a900460ff161561180f576040517f08c379a0000000000000000000000000000000000000000000000000000000008152600401611806906130e4565b60405180910390fd5b600260003373ffffffffffffffffffffffffffffffffffffffff1673ffffffffffffffffffffffffffffffffffffffff168152602001908152602001600020819080600181540180825580915050600190039060005260206000200160009091909190916101000a81548173ffffffffffffffffffffffffffffffffffffffff021916908373ffffffffffffffffffffffffffffffffffffffff1602179055506001600360003373ffffffffffffffffffffffffffffffffffffffff1673ffffffffffffffffffffffffffffffffffffffff16815260200190815260200160002060008373ffffffffffffffffffffffffffffffffffffffff1673ffffffffffffffffffffffffffffffffffffffff16815260200190815260200160002060006101000a81548160ff02191690831515021790555050565b600560009054906101000a900473ffffffffffffffffffffffffffffffffffffffff1673ffffffffffffffffffffffffffffffffffffffff163373ffffffffffffffffffffffffffffffffffffffff16146119d7576040517f08c379a00000000000000000000000000000000000000000000000000000000081526004016119ce90613078565b60405180910390fd5b60008060008773ffffffffffffffffffffffffffffffffffffffff1673ffffffffffffffffffffffffffffffffffffffff1681526020019081526020016000206001018054611a2590612dc4565b905014611a67576040517f08c379a0000000000000000000000000000000000000000000000000000000008152600401611a5e90613150565b60405180910390fd5b600073ffffffffffffffffffffffffffffffffffffffff16600183604051611a8f9190612ca6565b908152602001604051809103902060009054906101000a900473ffffffffffffffffffffffffffffffffffffffff1673ffffffffffffffffffffffffffffffffffffffff1614611b14576040517f08c379a0000000000000000000000000000000000000000000000000000000008152600401611b0b906131bc565b60405180910390fd5b6040518060a001604052808673ffffffffffffffffffffffffffffffffffffffff168152602001858152602001848152602001838152602001828152506000808773ffffffffffffffffffffffffffffffffffffffff1673ffffffffffffffffffffffffffffffffffffffff16815260200190815260200160002060008201518160000160006101000a81548173ffffffffffffffffffffffffffffffffffffffff021916908373ffffffffffffffffffffffffffffffffffffffff1602179055506020820151816001019081611beb9190613388565b506040820151816002019081611c019190613388565b506060820151816003019081611c179190613388565b506080820151816004019081611c2d9190613388565b5090505084600183604051611c429190612ca6565b908152602001604051809103902060006101000a81548173ffffffffffffffffffffffffffffffffffffffff021916908373ffffffffffffffffffffffffffffffffffffffff1602179055506004859080600181540180825580915050600190039060005260206000200160009091909190916101000a81548173ffffffffffffffffffffffffffffffffffffffff021916908373ffffffffffffffffffffffffffffffffffffffff1602179055505050505050565b6060806000600480549050905060008167ffffffffffffffff811115611d2157611d2061248b565b5b604051908082528060200260200182016040528015611d5457816020015b6060815260200190600190039081611d3f5790505b50905060008267ffffffffffffffff811115611d7357611d7261248b565b5b604051908082528060200260200182016040528015611da657816020015b6060815260200190600190039081611d915790505b50905060005b83811015611f9e57600080600060048481548110611dcd57611dcc612ef3565b5b9060005260206000200160009054906101000a900473ffffffffffffffffffffffffffffffffffffffff1673ffffffffffffffffffffffffffffffffffffffff1673ffffffffffffffffffffffffffffffffffffffff1681526020019081526020016000209050806003018054611e4390612dc4565b80601f0160208091040260200160405190810160405280929190818152602001828054611e6f90612dc4565b8015611ebc5780601f10611e9157610100808354040283529160200191611ebc565b820191906000526020600020905b815481529060010190602001808311611e9f57829003601f168201915b5050505050848381518110611ed457611ed3612ef3565b5b6020026020010181905250806004018054611eee90612dc4565b80601f0160208091040260200160405190810160405280929190818152602001828054611f1a90612dc4565b8015611f675780601f10611f3c57610100808354040283529160200191611f67565b820191906000526020600020905b815481529060010190602001808311611f4a57829003601f168201915b5050505050838381518110611f7f57611f7e612ef3565b5b6020026020010181905250508080611f9690612fbe565b915050611dac565b508181945094505050509091565b600560009054906101000a900473ffffffffffffffffffffffffffffffffffffffff1681565b611fdb33610ff5565b61201a576040517f08c379a000000000000000000000000000000000000000000000000000000000815260040161201190612ed3565b60405180910390fd5b6000339050826040516020016120309190612ca6565b604051602081830303815290604052805190602001206000808373ffffffffffffffffffffffffffffffffffffffff1673ffffffffffffffffffffffffffffffffffffffff16815260200190815260200160002060030160405160200161209791906134dd565b6040516020818303038152906040528051906020012014806121235750600073ffffffffffffffffffffffffffffffffffffffff166001846040516120dc9190612ca6565b908152602001604051809103902060009054906101000a900473ffffffffffffffffffffffffffffffffffffffff1673ffffffffffffffffffffffffffffffffffffffff16145b612162576040517f08c379a000000000000000000000000000000000000000000000000000000000815260040161215990613540565b60405180910390fd5b826040516020016121739190612ca6565b604051602081830303815290604052805190602001206000808373ffffffffffffffffffffffffffffffffffffffff1673ffffffffffffffffffffffffffffffffffffffff1681526020019081526020016000206003016040516020016121da91906134dd565b60405160208183030381529060405280519060200120146122d45760016000808373ffffffffffffffffffffffffffffffffffffffff1673ffffffffffffffffffffffffffffffffffffffff16815260200190815260200160002060030160405161224591906134dd565b908152602001604051809103902060006101000a81549073ffffffffffffffffffffffffffffffffffffffff0219169055806001846040516122879190612ca6565b908152602001604051809103902060006101000a81548173ffffffffffffffffffffffffffffffffffffffff021916908373ffffffffffffffffffffffffffffffffffffffff1602179055505b846000808373ffffffffffffffffffffffffffffffffffffffff1673ffffffffffffffffffffffffffffffffffffffff16815260200190815260200160002060010190816123229190613388565b50836000808373ffffffffffffffffffffffffffffffffffffffff1673ffffffffffffffffffffffffffffffffffffffff16815260200190815260200160002060020190816123719190613388565b50826000808373ffffffffffffffffffffffffffffffffffffffff1673ffffffffffffffffffffffffffffffffffffffff16815260200190815260200160002060030190816123c09190613388565b50816000808373ffffffffffffffffffffffffffffffffffffffff1673ffffffffffffffffffffffffffffffffffffffff168152602001908152602001600020600401908161240f9190613388565b505050505050565b6040518060a00160405280600073ffffffffffffffffffffffffffffffffffffffff168152602001606081526020016060815260200160608152602001606081525090565b6000604051905090565b600080fd5b600080fd5b600080fd5b600080fd5b6000601f19601f8301169050919050565b7f4e487b7100000000000000000000000000000000000000000000000000000000600052604160045260246000fd5b6124c38261247a565b810181811067ffffffffffffffff821117156124e2576124e161248b565b5b80604052505050565b60006124f561245c565b905061250182826124ba565b919050565b600067ffffffffffffffff8211156125215761252061248b565b5b61252a8261247a565b9050602081019050919050565b82818337600083830152505050565b600061255961255484612506565b6124eb565b90508281526020810184848401111561257557612574612475565b5b612580848285612537565b509392505050565b600082601f83011261259d5761259c612470565b5b81356125ad848260208601612546565b91505092915050565b6000602082840312156125cc576125cb612466565b5b600082013567ffffffffffffffff8111156125ea576125e961246b565b5b6125f684828501612588565b91505092915050565b600073ffffffffffffffffffffffffffffffffffffffff82169050919050565b600061262a826125ff565b9050919050565b61263a8161261f565b82525050565b600081519050919050565b600082825260208201905092915050565b60005b8381101561267a57808201518184015260208101905061265f565b60008484015250505050565b600061269182612640565b61269b818561264b565b93506126ab81856020860161265c565b6126b48161247a565b840191505092915050565b600060a0830160008301516126d76000860182612631565b50602083015184820360208601526126ef8282612686565b915050604083015184820360408601526127098282612686565b915050606083015184820360608601526127238282612686565b9150506080830151848203608086015261273d8282612686565b9150508091505092915050565b6000602082019050818103600083015261276481846126bf565b905092915050565b6127758161261f565b811461278057600080fd5b50565b6000813590506127928161276c565b92915050565b6000602082840312156127ae576127ad612466565b5b60006127bc84828501612783565b91505092915050565b60008115159050919050565b6127da816127c5565b82525050565b60006020820190506127f560008301846127d1565b92915050565b600081519050919050565b600082825260208201905092915050565b6000819050602082019050919050565b60006128338383612631565b60208301905092915050565b6000602082019050919050565b6000612857826127fb565b6128618185612806565b935061286c83612817565b8060005b8381101561289d5781516128848882612827565b975061288f8361283f565b925050600181019050612870565b5085935050505092915050565b600060208201905081810360008301526128c4818461284c565b905092915050565b6128d58161261f565b82525050565b600082825260208201905092915050565b60006128f782612640565b61290181856128db565b935061291181856020860161265c565b61291a8161247a565b840191505092915050565b600060a08201905061293a60008301886128cc565b818103602083015261294c81876128ec565b9050818103604083015261296081866128ec565b9050818103606083015261297481856128ec565b9050818103608083015261298881846128ec565b90509695505050505050565b600080600080600060a086880312156129b0576129af612466565b5b60006129be88828901612783565b955050602086013567ffffffffffffffff8111156129df576129de61246b565b5b6129eb88828901612588565b945050604086013567ffffffffffffffff811115612a0c57612a0b61246b565b5b612a1888828901612588565b935050606086013567ffffffffffffffff811115612a3957612a3861246b565b5b612a4588828901612588565b925050608086013567ffffffffffffffff811115612a6657612a6561246b565b5b612a7288828901612588565b9150509295509295909350565b600081519050919050565b600082825260208201905092915050565b6000819050602082019050919050565b6000612ab78383612686565b905092915050565b6000602082019050919050565b6000612ad782612a7f565b612ae18185612a8a565b935083602082028501612af385612a9b565b8060005b85811015612b2f5784840389528151612b108582612aab565b9450612b1b83612abf565b925060208a01995050600181019050612af7565b50829750879550505050505092915050565b60006040820190508181036000830152612b5b8185612acc565b90508181036020830152612b6f8184612acc565b90509392505050565b6000602082019050612b8d60008301846128cc565b92915050565b60008060008060808587031215612bad57612bac612466565b5b600085013567ffffffffffffffff811115612bcb57612bca61246b565b5b612bd787828801612588565b945050602085013567ffffffffffffffff811115612bf857612bf761246b565b5b612c0487828801612588565b935050604085013567ffffffffffffffff811115612c2557612c2461246b565b5b612c3187828801612588565b925050606085013567ffffffffffffffff811115612c5257612c5161246b565b5b612c5e87828801612588565b91505092959194509250565b600081905092915050565b6000612c8082612640565b612c8a8185612c6a565b9350612c9a81856020860161265c565b80840191505092915050565b6000612cb28284612c75565b915081905092915050565b7f53747564656e74206e6f7420666f756e64000000000000000000000000000000600082015250565b6000612cf36011836128db565b9150612cfe82612cbd565b602082019050919050565b60006020820190508181036000830152612d2281612ce6565b9050919050565b7f4e6f7420617574686f72697a6564000000000000000000000000000000000000600082015250565b6000612d5f600e836128db565b9150612d6a82612d29565b602082019050919050565b60006020820190508181036000830152612d8e81612d52565b9050919050565b7f4e487b7100000000000000000000000000000000000000000000000000000000600052602260045260246000fd5b60006002820490506001821680612ddc57607f821691505b602082108103612def57612dee612d95565b5b50919050565b7f4f6e6c792061646d696e206f7220746865206f776e6572206f6620746869732060008201527f646174612063616e20706572666f726d207468697320616374696f6e00000000602082015250565b6000612e51603c836128db565b9150612e5c82612df5565b604082019050919050565b60006020820190508181036000830152612e8081612e44565b9050919050565b7f43616c6c6572206973206e6f7420612073747564656e74000000000000000000600082015250565b6000612ebd6017836128db565b9150612ec882612e87565b602082019050919050565b60006020820190508181036000830152612eec81612eb0565b9050919050565b7f4e487b7100000000000000000000000000000000000000000000000000000000600052603260045260246000fd5b6000819050919050565b7f4e487b7100000000000000000000000000000000000000000000000000000000600052601160045260246000fd5b6000612f6682612f22565b9150612f7183612f22565b9250828203905081811115612f8957612f88612f2c565b5b92915050565b7f4e487b7100000000000000000000000000000000000000000000000000000000600052603160045260246000fd5b6000612fc982612f22565b91507fffffffffffffffffffffffffffffffffffffffffffffffffffffffffffffffff8203612ffb57612ffa612f2c565b5b600182019050919050565b7f4f6e6c792061646d696e2063616e20706572666f726d2074686973206163746960008201527f6f6e000000000000000000000000000000000000000000000000000000000000602082015250565b60006130626022836128db565b915061306d82613006565b604082019050919050565b6000602082019050818103600083015261309181613055565b9050919050565b7f416c726561647920617574686f72697a65640000000000000000000000000000600082015250565b60006130ce6012836128db565b91506130d982613098565b602082019050919050565b600060208201905081810360008301526130fd816130c1565b9050919050565b7f53747564656e7420616c7265616479206578697374732e000000000000000000600082015250565b600061313a6017836128db565b915061314582613104565b602082019050919050565b600060208201905081810360008301526131698161312d565b9050919050565b7f526f6c6c206e756d62657220616c726561647920696e207573652e0000000000600082015250565b60006131a6601b836128db565b91506131b182613170565b602082019050919050565b600060208201905081810360008301526131d581613199565b9050919050565b60008190508160005260206000209050919050565b60006020601f8301049050919050565b600082821b905092915050565b60006008830261323e7fffffffffffffffffffffffffffffffffffffffffffffffffffffffffffffffff82613201565b6132488683613201565b95508019841693508086168417925050509392505050565b6000819050919050565b600061328561328061327b84612f22565b613260565b612f22565b9050919050565b6000819050919050565b61329f8361326a565b6132b36132ab8261328c565b84845461320e565b825550505050565b600090565b6132c86132bb565b6132d3818484613296565b505050565b5b818110156132f7576132ec6000826132c0565b6001810190506132d9565b5050565b601f82111561333c5761330d816131dc565b613316846131f1565b81016020851015613325578190505b613339613331856131f1565b8301826132d8565b50505b505050565b600082821c905092915050565b600061335f60001984600802613341565b1980831691505092915050565b6000613378838361334e565b9150826002028217905092915050565b61339182612640565b67ffffffffffffffff8111156133aa576133a961248b565b5b6133b48254612dc4565b6133bf8282856132fb565b600060209050601f8311600181146133f257600084156133e0578287015190505b6133ea858261336c565b865550613452565b601f198416613400866131dc565b60005b8281101561342857848901518255600182019150602085019450602081019050613403565b868310156134455784890151613441601f89168261334e565b8355505b6001600288020188555050505b505050505050565b6000815461346781612dc4565b6134718186612c6a565b9450600182166000811461348c57600181146134a1576134d4565b60ff19831686528115158202860193506134d4565b6134aa856131dc565b60005b838110156134cc578154818901526001820191506020810190506134ad565b838801955050505b50505092915050565b60006134e9828461345a565b915081905092915050565b7f526f6c6c206e756d62657220616c726561647920696e20757365000000000000600082015250565b600061352a601a836128db565b9150613535826134f4565b602082019050919050565b600060208201905081810360008301526135598161351d565b905091905056fea264697066735822122006c0391456a2ebc40c31e1ff2769029304207755b0445378ebdf8272c02c34a964736f6c63430008120033",
  "immutableReferences": {},
  "source": "// SPDX-License-Identifier: MIT\r\npragma solidity ^0.8.18;\r\n\r\ncontract AcademicCredential {\r\n    \r\n    struct Student {\r\n        address wallet;\r\n        string ipfsHash;\r\n        string docHash;\r\n        string rollNo;\r\n        string contact;\r\n    }\r\n    \r\n    mapping(address => Student) public students;\r\n    mapping(string => address) private studentByRollNo;\r\n    mapping(address => address[]) private authorizedEmployers;\r\n    mapping(address => mapping(address => bool)) private isAuthorized;\r\n    address[] private studentAddresses;\r\n    address public admin;\r\n\r\n    modifier onlyAdmin() {\r\n        require(msg.sender == admin, \"Only admin can perform this action\");\r\n        _;\r\n    }\r\n\r\n    modifier onlySelfOrAdmin(address wallet) {\r\n        require(\r\n            msg.sender == admin || msg.sender == wallet,\r\n            \"Only admin or the owner of this data can perform this action\"\r\n        );\r\n        _;\r\n    }\r\n\r\n    constructor() {\r\n        admin = msg.sender;\r\n    }\r\n\r\n    function addStudent(\r\n        address wallet,\r\n        string memory ipfsHash,\r\n        string memory docHash,\r\n        string memory rollNo,\r\n        string memory contact\r\n    ) public onlyAdmin {\r\n        require(bytes(students[wallet].ipfsHash).length == 0, \"Student already exists.\");\r\n        require(studentByRollNo[rollNo] == address(0), \"Roll number already in use.\");\r\n        students[wallet] = Student(wallet, ipfsHash, docHash, rollNo, contact);\r\n        studentByRollNo[rollNo] = wallet;\r\n        studentAddresses.push(wallet); \r\n    }\r\n\r\n    function updateStudentData(\r\n        string memory newIpfsHash,\r\n        string memory newDocHash,\r\n        string memory newRollNo,\r\n        string memory newContact\r\n    ) public {\r\n        require(isStudent(msg.sender), \"Caller is not a student\");\r\n        address studentAddress = msg.sender;\r\n\r\n        // Ensure new roll number is not already taken\r\n        require(\r\n            keccak256(abi.encodePacked(students[studentAddress].rollNo)) == keccak256(abi.encodePacked(newRollNo)) ||\r\n            studentByRollNo[newRollNo] == address(0),\r\n            \"Roll number already in use\"\r\n        );\r\n\r\n        // Remove old roll number mapping if changed\r\n        if (keccak256(abi.encodePacked(students[studentAddress].rollNo)) != keccak256(abi.encodePacked(newRollNo))) {\r\n            delete studentByRollNo[students[studentAddress].rollNo];\r\n            studentByRollNo[newRollNo] = studentAddress;\r\n        }\r\n\r\n        // Update student data\r\n        students[studentAddress].ipfsHash = newIpfsHash;\r\n        students[studentAddress].docHash = newDocHash;\r\n        students[studentAddress].rollNo = newRollNo;\r\n        students[studentAddress].contact = newContact;\r\n    }\r\n\r\n    function getStudentByRollNo(string memory rollNo) public view onlyAdmin returns (Student memory) {\r\n        address studentAddress = studentByRollNo[rollNo];\r\n        require(studentAddress != address(0), \"Student not found\");\r\n        return students[studentAddress];\r\n    }\r\n\r\n    function getStudent(address wallet) public view onlySelfOrAdmin(wallet) returns (Student memory) {\r\n        return students[wallet];\r\n    }\r\n\r\n    function authorize(address employer) public {\r\n        require(isStudent(msg.sender), \"Caller is not a student\");\r\n        require(!isAuthorized[msg.sender][employer], \"Already authorized\");\r\n        \r\n        authorizedEmployers[msg.sender].push(employer);\r\n        isAuthorized[msg.sender][employer] = true;\r\n    }\r\n\r\n    function revoke(address employer) public {\r\n        require(isStudent(msg.sender), \"Caller is not a student\");\r\n        \r\n        isAuthorized[msg.sender][employer] = false;\r\n        \r\n        address[] storage employers = authorizedEmployers[msg.sender];\r\n        for (uint i = 0; i < employers.length; i++) {\r\n            if (employers[i] == employer) {\r\n                employers[i] = employers[employers.length - 1];\r\n                employers.pop();\r\n                break;\r\n            }\r\n        }\r\n    }\r\n\r\n    function getAuthorizedEmployers(address student) public view returns (address[] memory) {\r\n        require(msg.sender == student || msg.sender == admin, \"Not authorized\");\r\n        return authorizedEmployers[student];\r\n    }\r\n\r\n    function getStudentDataByRollNo(string memory rollNo) public view returns (Student memory) {\r\n        address studentAddress = studentByRollNo[rollNo];\r\n        require(studentAddress != address(0), \"Student not found\");\r\n        require(\r\n            isAuthorized[studentAddress][msg.sender] || msg.sender == admin,\r\n            \"Not authorized\"\r\n        );\r\n        return students[studentAddress];\r\n    }\r\n\r\n    function isAdmin(address wallet) public view returns (bool) {\r\n        return wallet == admin;\r\n    }\r\n\r\n    function isStudent(address wallet) public view returns (bool) {\r\n        return bytes(students[wallet].ipfsHash).length > 0;\r\n    }\r\n\r\n\r\nfunction getAllStudents() public view returns (string[] memory, string[] memory) {\r\n    uint count = studentAddresses.length;\r\n    string[] memory rollNos = new string[](count);\r\n    string[] memory contacts = new string[](count);\r\n\r\n    for (uint i = 0; i < count; i++) {\r\n        Student storage student = students[studentAddresses[i]];\r\n        rollNos[i] = student.rollNo;\r\n        contacts[i] = student.contact;\r\n    }\r\n\r\n    return (rollNos, contacts);\r\n}\r\n}",
  "sourcePath": "C:\\Users\\rajes\\OneDrive\\Desktop\\blockchain\\contracts\\AcademicCredential.sol",
  "compiler": {
    "name": "solc",
    "version": "0.8.18+commit.87f61d96.Emscripten.clang"
  },
  "schemaVersion": "3.4.16",
  "updatedAt": "2025-03-01T05:26:29.170Z",
  "networkType": "ethereum",
  "devdoc": {
    "kind": "dev",
    "methods": {},
    "version": 1
  },
  "userdoc": {
    "kind": "user",
    "methods": {},
    "version": 1
  }
}